:100000000C9417120C943F120C943F120C943F1254
:100010000C943F120C943F120C943F120C943F121C
:100020000C943F120C943F120C9463190C94D21947
:100030000C943F120C943F120C943F120C943F12FC
:100040000C943F120C943F120C943F120C943F12EC
:100050000C943F120C943F120C943F120C94041C0D
:100060000C943F120C943F120C943F120C943F12CC
:100070000C943F120C943F120C943F120C943F12BC
:100080000C943F120C943F120C943F120C943F12AC
:100090000C943F120C943F120C943F120C943F129C
:1000A0000C943F120C943F120C943F12000000007D
:1000B000003E5B4F5B3E3E6B4F6B3E1C3E7C3E1CEE
:1000C000183C7E3C181C577D571C1C5E7F5E1C0034
:1000D000183C1800FFE7C3E7FF0018241800FFE7EB
:1000E000DBE7FF30483A060E2629792926407F05AE
:1000F0000507407F05253F5A3CE73C5A7F3E1C1CC4
:1001000008081C1C3E7F14227F22145F5F005F5F83
:1001100006097F017F006689956A6060606060946F
:10012000A2FFA29408047E040810207E2010080874
:100130002A1C08081C2A08081E101010100C1E0C7F
:100140001E0C30383E3830060E3E0E060000000011
:100150000000005F00000007000700147F147F14F8
:10016000242A7F2A1223130864623649562050003D
:1001700008070300001C2241000041221C002A1C29
:100180007F1C2A08083E0808008070300008080814
:100190000808000060600020100804023E51494534
:1001A0003E00427F400072494949462141494D3352
:1001B0001814127F1027454545393C4A49493141B9
:1001C000211109073649494936464949291E000087
:1001D00014000000403400000008142241141414DC
:1001E0001414004122140802015909063E415D59C8
:1001F0004E7C1211127C7F494949363E41414122D1
:100200007F4141413E7F494949417F090909013EFA
:10021000414151737F0808087F00417F4100204021
:10022000413F017F081422417F404040407F021C33
:10023000027F7F0408107F3E4141413E7F0909094A
:10024000063E4151215E7F09192946264949493216
:1002500003017F01033F4040403F1F2040201F3FDC
:100260004038403F63140814630304780403615961
:10027000494D43007F4141410204081020004141A3
:10028000417F04020102044040404040000307084F
:100290000020545478407F2844443838444444284B
:1002A000384444287F385454541800087E090218F2
:1002B000A4A49C787F0804047800447D400020407A
:1002C000403D007F1028440000417F40007C0478BE
:1002D00004787C080404783844444438FC18242406
:1002E0001818242418FC7C08040408485454542486
:1002F00004043F44243C4040207C1C2040201C3C03
:100300004030403C44281028444C9090907C4464F9
:10031000544C44000836410000007700000041368C
:10032000080002010204023C2623263C1EA1A16112
:10033000123A4040207A3854545559215555794144
:100340002154547841215554784020545579400C1B
:100350001E527212395555555939545454593955FC
:100360005454580000457C410002457D420001453F
:100370007C40F0292429F0F0282528F07C545545AC
:10038000002054547C547C0A097F4932494949323F
:100390003248484832324A4848303A4141217A3A54
:1003A00042402078009DA0A07D39444444393D401E
:1003B00040403D3C24FF2424487E4943662B2FFCCB
:1003C0002F2BFF0929F620C0887E09032054547979
:1003D000410000447D413048484A32384040227A4A
:1003E000007A0A0A727D0D19317D2629292F2826C7
:1003F0002929292630484D402038080808080808CF
:100400000808382F10C8ACBA2F102834FA00007B27
:10041000000008142A142222142A1408950022002D
:1004200095AA005500AAAA55AA55AA000000FF00E7
:10043000101010FF00141414FF001010FF00FF1024
:1004400010F010F0141414FC001414F700FF000056
:10045000FF00FF1414F404FC141417101F10101FD5
:10046000101F1414141F00101010F0000000001FC3
:10047000101010101F10101010F010000000FF10CE
:100480001010101010101010FF10000000FF1400CA
:1004900000FF00FF00001F10170000FC04F41414FC
:1004A0001710171414F404F40000FF00F7141414C8
:1004B00014141414F700F7141414171410101F1048
:1004C0001F141414F4141010F010F000001F101F6B
:1004D0000000001F14000000FC140000F010F010D9
:1004E00010FF10FF141414FF141010101F00000050
:1004F00000F010FFFFFFFFFFF0F0F0F0F0FFFFFF54
:100500000000000000FFFF0F0F0F0F0F38444438AA
:10051000447C2A2A3E147E02020606027E027E02E5
:1005200063554941633844443C04407E201E200604
:10053000027E020299A5E7A5991C2A492A1C4C7241
:1005400001724C304A4D4D303048784830BC625AC8
:10055000463D3E494949007E0101017E2A2A2A2A58
:100560002A44445F444440514A444040444A514034
:100570000000FF0103E080FF000008086B6B0836F5
:1005800012362436060F090F060000181800000066
:100590001010003040FF0101001F01011E00191D55
:1005A0001712003C3C3C3C0000000000F0F89C8E20
:1005B0008783878E9CF8F00000FEFF03030303038C
:1005C000070EFCF80000FEFF0303030303070EFC05
:1005D000F80000FFFF00000000000000FFFF000027
:1005E000FEFF8383838383C7EE7C380000F8FC0E14
:1005F00007030303070EFCF800003F7FE0C0808084
:10060000C0E07F3FFFFF01010101010101FFFF0089
:1006100000FFFF0C0C0C0C1C3E77E3C100007FFFB9
:10062000C0C0C0C0C0E0703F1F00001F3F70E0C0EE
:10063000C0C0E0703F1F00007FFFC1C1C1C1C1E366
:10064000773E1C00001F3F70E0C0C0C0E0703F1F3D
:10065000000000000001FFFF01000000D5F08D1434
:10066000A1C881CFD9F1AF20001E7FFFFFFFFFFFA0
:10067000FFFFFFFFFFFFFFFFFFFFFFFFFFFFFFFF8A
:10068000FFFFFFFFFFFFFFFFFEFCF8F0E0C0C080B0
:10069000000000000000000000000000000000005A
:1006A000000000C1F9FFFFFFFFFFFFFFFFFFFFFF9B
:1006B000FFFFFFFFFFFFFFFFFFFFFFFFFFFFFFFF4A
:1006C000FFFFFFFFFFFFFFFFFEFEFCF8F0E0C0C0F2
:1006D000800000000000000000FCFFFFFFFFFFFFA4
:1006E000FFFFFFFFFFFFFFFFFFFFFF0F0101010003
:1006F000000103070F1F3F3F7FFFFFFFFFFFFFFFCB
:10070000FFFFFFFFFFFFFFFFFFFEFCF8F0E0000030
:10071000FFFFFFFFFFFFFFFFFFFFFFFFFFFFFF3FA9
:1007200007000000000000000000000000000000C2
:1007300000010303070F1F3F3F7FFFFFFFFFFFFF86
:10074000FFFFFFFFFF0000010101010101010101A5
:100750000101010101000000000000000000000094
:100760000000000000000000000000000000000089
:100770000000010101010101010101013721001EF9
:100780007FFFFFFF3CC3F3FDFEFFFFFFFFFEF9E726
:100790001FFEF9FFFFFF1FE7F9FEFFFFFEFCF8F069
:1007A000E0C08080000000000000000000000000A9
:1007B000000000000000000000C0F8FFFFFFFFFF86
:1007C000FFFFFFFFFFFFFFFFF807FFFF007F7FFF37
:1007D000FFFFFFFFFFFFFFFFFFFFFFFFFEFCFCF837
:1007E000F0E0C0808000000000000000000000FC7D
:1007F000FFFFFFFFFFFFFFFFFFFFFFFFFFFFFF0FF9
:10080000000000000000000103070F1F1F3F7FFFD3
:10081000FFFFFFFFFFFFFFFFFFFFFFFFFFFEFCF8F3
:10082000F0E0C0000000FFFFFFFFFFFFFFFFFFFF42
:10083000FFFFFF3F07000000000000000000000075
:1008400000000000000000010103070F1F1F3F7F91
:10085000FFFFFFFFFFFFFFFFFFFF0000000101019F
:10086000010101010101010101000000000000007F
:100870000000000000000000000000000000000078
:100880000000000000000000000101010101010161
:100890000180C0C0E0E0E0E0E0E0F0F0F0F8F8FC5B
:1008A000FCFC7E3E1F0F061FFFFFFFFFFFFFFFFF49
:1008B000FFFF3F0F0301000000000000000001FFE8
:1008C000FFFFFFFFFFFFFFF8000000000000000037
:1008D0000000000000FFFFFFFFFFFFFFFFFFE00041
:1008E00000000000000000000000F8FFFFFFFFFF15
:1008F000FFFFFFFFFFFEF08000000000000000008F
:10090000FFFFFFFFFFFFFFFFFFFFFFFFFFFFF8807D
:100910000000000000F8F3FFFFFFFFFFFFFFFFFFF5
:10092000FFFFFFFFFFFF78000000003F3F3F3F3F1A
:100930003F3F3F3F3F3F3F3F3F3F3F000000000002
:1009400000163E008080C0C0C0C0C0C0E0E0E0F043
:10095000F0F878783C1C0E0600001FFFFFFFFFFF39
:10096000FFFFFF3F0F030100000000000000000038
:100970000001FFFFFFFFFFFFF80000000000000084
:100980000000000000000000FFFFFFFFFFFFFFE08E
:1009900000000000000000000000000000F8FFFF61
:1009A000FFFFFFFFFFFFFEF08000000000000000DF
:1009B000000000FFFFFFFFFFFFFFFFFFFFFFFFF84B
:1009C00080000000000000F0E0C31FBFBF7F7F7FFA
:1009D000FFFFFFFFFF7F7F7800000000003F3F3FE9
:1009E0003E3F3F3F3F3F3E3E3E3E3E3F0000000019
:1009F00000000000000000000000000000000000F7
:100A00008080C0C0E0F0F8FCFEFEFFFFFFFFFFFFAC
:100A1000FFFEFEFCF8E0E0C0C0C080000000000067
:100A2000000000008080C0E0F0F8FCFEFEFEFEFF4B
:100A3000FFFFFFFFFFFFFFFFFFFFFFFFFFFFFFFFC6
:100A4000FFFFFFFFFFFFFFFFFFFFFFFFFEFEFEFCBC
:100A5000780E3F7FFFFFFFFFFFFFFF7F7F7F7F3F1E
:100A60003FFFFFFFFFFFFFFFFFFFFFFFFFFFFFFF56
:100A7000FFFFFFFFFFFFFFFFFFF7C3C383810000FE
:100A80002F1800000000000000000000000000809F
:100A900080C040603018CC0612236141410141639F
:100AA00022D60C3820604040C080000000000000CA
:100AB0000000008080C060B0D8ECF67A7A7A5B5093
:100AC00004A4A2D2DFC1C0C0C0C0D878F8E8E0E07A
:100AD00061EFE9E9EAD2C2DCDDDDEBEAF2F66C189F
:100AE000060B2D6E76777B7B7D7C3D3E3E3E1F1F49
:100AF0001FCFEF8737EFFFDFEFF37C7F3F218FBE04
:100B00007D7BF77F7F81BAB3838181010000000084
:100B10003E7FFFFFFF7F3E080800003E7642763EA4
:100B2000003878FC7F3F7FEEC408080030400002A8
:100B30000204000E1F7F3F7F3F7F0E080800000069
:100B4000080C100C00008CFCFCF8F8FFFFFEFCFC0D
:100B5000FCFECEC0C00303737F3F3F3F7FFFFF1FFC
:100B60001F3F3F31001010000088B8F0E0F8FEFC95
:100B7000F0F8D8CC808000000101331B1F0F3F7FAD
:100B80001F070F1D11000018383EFFFF7C1C1808BE
:100B9000080010183E7C18080000000040E0F8FE35
:100BA000FFFFFFFEC00020206060F0F1FBFFFFFFB1
:100BB0003F07030D100000000000000004B2DA80BF
:100BC00000000000000000000003010001030038E5
:100BD0007878F0FEFFFFFFFEE0F0F07030000007D5
:100BE0007FFFFFFF7F1F0F010000000E100010208D
:100BF0004000E09CA8C0804020200000000000666B
:100C00000C6D0D050100000000000080C6FFFFFF15
:100C1000FFC68000001E3F7FFFFFFFFFFFFF7F3FFB
:100C20001E0C1000000080C4F4F4C480000000001A
:100C30001E21424742404040211E00FEF8F8FCFFC2
:100C4000FCF8F8FCFFFCF8F8FE03070F0F1F1F1F4E
:100C50001F1F1F0F0F07030E0D0040E020F01010A4
:100C60001010F020E0400000000000010303030327
:100C7000010000000010387C7C7CFEFFFFFE7C7CC5
:100C80007C00000000001F1FFFFFFFFF1F1F1F0E43
:100C9000040E10001038383838BABA383838000026
:100CA00000000000000E0E6E6E0E0E0E0E04003CD4
:100CB000E6F3F9FDFCFCFCF83830007CC400006071
:100CC000FBFEFDFFFD7979FCFCF8F0C041633E10AE
:100CD000100000007008E8D8D810100000000000D4
:100CE0000000407058683000302858704000000004
:100CF00000000080E0F8FCFEFFFFFFFFFFFEFEFCAF
:100D000078040E0F0F0F1F1F1F1F1F1F1F0F0F072E
:100D100002100D0000008060D864327AFAF6FC7888
:100D2000041800000002030707070E0C080000006B
:100D300000000018BCBCFCF8FCFEFFFFFFFFCE006B
:100D4000030707C7E37F7F3F3F3F79F0C00D1000E7
:100D50001818B8B030A444B8EECC00000003030368
:100D6000402114060D1830400080E0301004C4F615
:100D7000FAFE1F0F0F1B3326060307060C3E7FFFEC
:100D8000FFEEEEE7F77F7E3C001010000000000051
:100D90000040C01000000000000000000000000043
:100DA0003216404400406202180000FFFF7FFFFF40
:100DB000FFFFFF3F0908081D3D6B5F5D6E3E0C00A5
:100DC0000603B1B11B0E000808000000000000007F
:100DD00000FFFFFFFFFFFFFFFF0808007E664242A3
:100DE000667E0000203EFFFF3E2000080800000055
:100DF0001E1E000000FEFFFFFFFFFFFFFE080800B1
:100E0000767666667676003E6CF7C6C6F76C3E0868
:100E10000800000000000000000F7FFEFEFEFE7FC5
:100E20000F080800046C28206C040000000000007B
:100E3000C0E0F0F0F8FCFEFFFFFFFFFFFFFFFFFF49
:100E4000FFFFFFFFFFFFFFFFFFFFFFFFFFFFFFFFB2
:100E5000FEFCF8F0E0C08000000060787C7E7F7FC0
:100E60007F7F7F7F7F7F7F7F7F7F7F7F7F7F7F7F92
:100E70007F7F7F7F7F7F7F7F7F7F7F7F7F7F7F7F82
:100E80007F7F7F7F7F7F7F7C602F0F0000000000CF
:100E900000C0E0E0F0787CBEDEDFEFEFF7F7E3D3F1
:100EA000B259EBE9C87A72B7A7AFCFDFBFBF7EFEFA
:100EB000FCF8F0E0C080000000000060385C6E7755
:100EC000374B717C7F7F7F7F7F7F7F7F7F1F2F43AB
:100ED000787C7E7E7F7F7F7F7F7F7F0F717E7E7DB0
:100EE0007D7B776F5F3F7C600000000000000000AA
:100EF00000000000C0E0FCFEFFFFFE3C3810FEF8E2
:100F0000E0C0000080C0F0FCFFFF7F1F0F03010066
:100F10000000000F1F3F7F7F7F7FFF7F3F0F030099
:100F20000000000000000000151800000000000094
:100F3000000000000000C0E098E2EA14081000F889
:100F4000E0C00000000080C0F0FC7F1F0F03010024
:100F500000000000070F1F3B3C320F7F3F0F0300D4
:100F60000000000000000000000C1E3F3F7FFEF864
:100F7000F0F0E0E0C0C0808EBF0000000000000084
:100F800001010303070F1F3F3F100E0004120A1A4E
:100F90007060E0E0C0C0808000000E000000000033
:100FA00000000000010103070F1F1F000080E0F098
:100FB000F8FCFEFFFFFFFFFFFFFFFFFEFCF8F0C0A5
:100FC000C08080000C7FFFFFFFFFFFFFFFFFFFFFE0
:100FD000FFFFFFFFFFFFFF7FFFFFFF1F0300000377
:100FE0000F01010387C7F3FFFFFFFFFFFFFFFDFCBA
:100FF000FCFCFFF8F0E0F8FCFCFEFEFEFFFFFFFF4C
:10100000FFFFFFFFFFFFFFFFFFFFFFFFFFFFFFFFF0
:10101000FFFFFFFFFF7F7FFFFFFFFFFFFFFFFFFFE0
:10102000FFFFFFFFFF3F0001070707038180C0F8B4
:10103000FFFFFFFFFFFFFFFFFFFFFFFFFFFFFEF0D0
:10104000801930000000800010302080E0802020D7
:1010500020301008E0000000000000000008443FBD
:10106000C000002AF31F1F3FF2EAF8FC0C000F3209
:101070004444040000000000000000000000414360
:10108000AB2385455858D8A87078B8F0E0808068C0
:10109000E8ECECDCDEBE7E01FEFF807FFFFFFFFEA2
:1010A000FDFBE699077FFFE38E5DDBB72F1F1F1F58
:1010B0003F9C07E706E5E3F3F7F3FBF900000000C8
:1010C00003030001000080C0D0B76FDC83FE81BF46
:1010D000BFDF5F5F5F5E50000000000000000000A7
:1010E00080FCFEFEFFFFFFFFFFFFFFFFFFFFFFFE95
:1010F000FFFFFFFFFFFFFFFFFFFFFFFFFFFFFFDF20
:101100008F0783C18100000000000080C0E0E0F094
:10111000FCFFFFFFFFFFFFFFFFFFFFFFFFFFFFFFE2
:10112000FFFFFFFFFFFFFFFFFFFFFFFFFFFFFFFFCF
:10113000FFFFFFDFBF7F7FFEFEFFF2F0200103070E
:1011400007E7FFFFFFFFFFFFFFFFFFFFFFFFFFFFBF
:10115000FFFFFFFFFFFFFFFFFFFFFFFFFFFFFFFF9F
:10116000FFFFFFFFFFFFFFFEFCF0C10301000000D7
:1011700000203F3F3F3F3F3F3F3F3F3F3F3F3F3FDD
:101180003F3F3F3F3F3F3F3F3F3F3F3F3F3F3F3F6F
:101190003F3F3F3F3F3F3F3F3F3F3F3F3F3E3000AE
:1011A00000321E000000000000000080FC7C9CEB70
:1011B000F7FBFBFDFCFEFE9EEEF4F8F9FDFCFEFEE7
:1011C000FEFCF8F3E71766DADD8D01000180000010
:1011D00000000000000080C0C020F07C1FC7E11E9E
:1011E000FFFFFFFFFFFFFFFFFFFFFFFFFFFFFFFF0F
:1011F000FFFFFFFFFFFFFFFFF8FEF9F7CF8E1E3D59
:101200003C7CB452A020000001010002E1FCFFFF81
:10121000FFFFFFFFFFFFFFFFFFFFFFFFFF1F7FFF3E
:10122000FFFFFFFFFFFFFFFFFFFFFFFFFFFFFFFFCE
:10123000FEFCF0C00001000000000000203F3F3F26
:101240003F3F3F3F3F3F3F3F3F3B3933070F1F3F4C
:1012500000071F3F3F3F3F3F3F3F3F3F3F3F3F3044
:10126000071F3F3F3F3F3E30000000FFFFFFFEFEF5
:10127000FEFCFCF8F00F0F0F0F0F0F0F0F07010A06
:101280000CBEDEEEF4F4F838C0F0000F0F0F0F07BD
:10129000090E0701000080E0F8FCFEFEFEFFFFFFE4
:1012A000FFFFFEFEFCFCFCF8F8F0F0E080007FFFA2
:1012B000FFFFFFFFFFFFFFFFFFFFFFFFFFFFFFFF3E
:1012C000BF1F070F0F1F3E00077F0F010383C7E7F4
:1012D000F7F7FFFFFFFFFFFFFFFFFFF8F0E0E0E0A1
:1012E00080E0F0FCFEFFFF7F3F7FFFFFFFFFFFFF7F
:1012F000FFFFFFFFFFFFFFFFFF01010101010101F0
:1013000000000001010101010101010101010101D0
:1013100001011921000000001030E0202000E0D081
:1013200098888480001860C0402000000000088871
:1013300084C47E01001C2B63FBFF9F9A5CBF80006E
:101340000300040402000000000000000080C0A0B0
:10135000A0701DE1FEFFFFFF7F98E0E0C0C0C0006D
:1013600080E0F0FCFE7F3C031F3FC3FCFFFFFF3F1C
:10137000437CBF83BFBFDFEF00010101010100001B
:101380000000000101010101010001010000000154
:10139000010000000080C0E0F0F0F8FCFCFEFEFF61
:1013A000FFFFFFFFFFFFFFFFFFFFFFFFFFFFFFFF4D
:1013B000FFFFFFFFFFFFFFFFFFFFFFFFFEFCFCF84B
:1013C000F0E0C08000000000000080F0FCFEFFFFA5
:1013D000FFFFFFFFFFFFFFFFFFFFFFFFFFFFFFFF1D
:1013E000FFFFFFFFFFFFFFFFFFFFFFFFFFFFFFFF0D
:1013F000FFFFFFFFFFFFFFFFFFFFFFFFFFFEFCF010
:101400008000000F0F0F0F1F1F1F1F1F3F7F7F7FC9
:101410003F3F3F7F7F7F7F7F7F7F7F7F7F7F7F7F9C
:101420007F7F7F7F7F7F7F7F7F7F7F7F7F7F7F7FCC
:101430007F7F7F7F7F7F7F7F7F7F7E603917000088
:1014400000000080C0E0E0F0F8787CBCBEBE5E9F8B
:10145000DFEFEFEFEFEFEFEFEEECC9A54EDE9FAF62
:10146000333C1F9EA9B7797EFEFCF8F8F0E0C080FF
:10147000000000000000000000B0DCEEF7FBFB7D88
:10148000BEDEEFF7FBFDFEFFFFFF7F7FBFBFDF5F2D
:101490006FB7D7DBEDEEEEF6F5F5817DFEFEFEFFD4
:1014A000FFFEFEFDC33BF7EFDF3EFCF080000000D7
:1014B000000707070F0F0F010E1F3F37371B1B0DCC
:1014C0002D34326F6F777B7C7F7F7F7F7F7F7F7F45
:1014D0007F7F7F7F7C631F7F7F7F7F7F7F7F601F1A
:1014E0007F7F7F7E7D734E200000C1E3F7FFFFFF0B
:1014F000FFFFFFFFFFFFFFFFFFFFFFFFFFFFFFFFFC
:10150000FFFFFFFFFFFFFFFFFE3880878FDFFFFF3A
:10151000FFFFFFFFFFFFFFFFFFFFFFFFFFFFFFFFDB
:10152000FFFFFF1F0F0F070301000021100000C184
:10153000C363A84B97F7F7FBFBF8E31F7FFFFCFBA8
:10154000E35B3B7DBDDDEDF5F6FFFFFE38000000FF
:1015500007819EBFB04F3F7F1FE7F9FEFF70B7D7EF
:101560004B9D5EDFDCDF0F0F07070301000000006B
:101570000000808080D8FEFF0406070707070707E2
:1015800007090B0000000000008098B20004060765
:101590000501050606000080E0F0F0F0F8F8F8F824
:1015A000FCFEFEFFFFFFFFFEFEFEFCFCF8F0E0800D
:1015B0000000D8EEEFEFCF077FFFFFFFFFFFFFFF39
:1015C000FFFFFFFFFFFFFFFFFFFFFFFFFFFC38FFF5
:1015D000FFFFFFFFFFFEFFFFFFFFFFFFFFFFFFFF1C
:1015E000FFFFFF1F1F0F1FFF7F0F01000101010100
:1015F00001010101010101010101010101010101DB
:101600000000000001000000001D19000000002083
:101610002040C03000306080C000000000008080AA
:10162000C04020000000000000C04242040003004F
:1016300000846E9FFFFFBC30A1418101013CC0428C
:1016400042422420009E7FFFF8FFC00CB09893AF69
:101650009BD7D7EFEEF55290000000070808040072
:10166000000001000101010100010101010101016E
:101670000101010100000000000000000000000066
:1016800000000000000000000000008080C0C0E0FA
:10169000E0E0F0F0F8F8F8F8F8FCFCFEFFFFFFFFE0
:1016A000FFFFFFFFFFFFFFFFFFFFDFDFDF9F9F9FCA
:1016B0001E3E3C3C3E3F1F1F0F060000000080C046
:1016C000C0E0F0F0F8FCFCFEFEFFFFFFFFFFFFFFB5
:1016D000FFFFFFFFFFFFFFFFFFFFFFFFFFFFFFFF1A
:1016E000FFFFFFFFFFFFFFFFFFFFFFFFFFFFFFFF0A
:1016F000FFFEFEFEFCF8F8F0F0E0C0800003070FEC
:101700000F1F3F3F3F7F7F7F7FFFFFFFFFFFFFFFF9
:10171000FFFFFFFFFFFFFFFFFFFFFFFFFFFFFFFFD9
:10172000FF7F7F7F7F7FFFFFFFFFFFFFFFFFFFFF49
:10173000FFFFFFFF7F3F3F3F1F1F0F07000000001D
:101740000000000000000000000000000000030393
:101750000303030303030303000000000000000071
:101760000000000000000103030101030303030361
:1017700003030100000000000000003F1A00000009
:1017800000000000000000000000008080C0C0C019
:10179000E0E0F0F0F0F0F0F8F8F8FAF8F5EB946B20
:1017A000D3AC8FDF1FCFD3CC8F87890E0E0C0C1CD0
:1017B00018181C120D0E060000000000000000802A
:1017C000A0C0D0E8E8F4F4F2FBFBF9FDFDFDFDFD5F
:1017D0001DE1FDFEFEFEFEFEFEFE3EDEC6988C2CEA
:1017E00075F9FCFDFDFDFDFDFDFBFBF3EBD6B674CD
:1017F000ECECE8D0D0A06040800000000307070FA9
:101800001F1F1F3F3F3F3F7F7F7F7F7F7F0FF0FF87
:10181000FFFFFFFFFFFF7F0F717C7D7D7B7B7B37B1
:10182000362D1D3B77F7EFEF1FDFBFBF7F7FFFFE3A
:10183000F9671F1F1F1F0F0E0600000000000000A9
:10184000000000000000000000000000000303038F
:101850000303030303000000000000000000000079
:101860000000000000010000000101010101010170
:10187000000000000000000000081E3FFEFFFEFE0A
:10188000FC800000808080C0C0C0E0E0F0F0F8F88C
:10189000FCFCFCF8F8F8FCFCFCFEFEFEFFFFFFFF82
:1018A000FFFFFFFFFFFFFFFFFFFFFFFFFEFEFEFE4C
:1018B000FCFCFCF8F8F0E000000000000000000074
:1018C00001070F1F3F3F3F1F1F1F1F1F1F0F0F0F3E
:1018D0000F0F0707070703030303030301010100B9
:1018E0000000030F3F3F3F3F3F3F3F3F3F3F3F3FF2
:1018F0003F3F3F3F3F3F3F3F1F0F0300002030303F
:1019000020440E00081220DEC0FC00000000000091
:1019100000808080C0C0E0E0F0F0F8F8C030F0F067
:10192000F8F8F8FCFC7C7E7FBEAD1DFAFAFAFAFDF1
:10193000FDFEF7EFDEDCBC7CFCFCF8F8F830D0E014
:10194000000000000000000000000001070D161B51
:101950001C0E0F0F0F0F0F070707070703030303E3
:1019600001000101010100000000000000010B3432
:10197000033F3F3F3F0F373B3D310B3B363127277E
:10198000381F0F03000000002020008080C0C0E04E
:10199000E0F0F8FCFEFEFFFFFFFFFFFEFEFEFCFC9A
:1019A000F8E0C0C0808000033FFFFFFF3F1FFFFF44
:1019B000FFFFFFFFFFFFFFFFFFFFFFFFFF7FFFFFB7
:1019C000FFFF070000010F010000071F5F476F7F47
:1019D0007F7F7F7F7F7F7F7F7D78611F0300001C7B
:1019E000170000000000C000000810302020008018
:1019F0000020203010E8000000000000000002225B
:101A000022111F000000806888FCFE1FDF1CD00030
:101A100000013F2244848404000000000000000014
:101A2000000001034729294B36171B6030407860BE
:101A3000000000000010387C7E7E7E3E9FEFF7FFA6
:101A4000FFFFFFFFFFFFFFFFFFFFFFFFFFFFFFFFA6
:101A5000FFFFFFFFFFFFFFFFFFFFFCF8E08000003C
:101A6000000000000000F0FEFFFFFFFFFFFFFFFF90
:101A7000FFFFFFFFFFFFFFFFFFFFFFFFFFFFFFFF76
:101A8000FFFFFFFFFFFFFFFFFFFFFEF080000000F2
:101A90000000010101010101010101010101010138
:101AA0000101010101010101010101010101010126
:101AB0000101010101010101012C110010280C2478
:101AC000140C0E87E3F13CDE0FF7FBFDFCFAF6E9A0
:101AD000D7CFDFBF7FFFFFFFFFFFFF7FBF40FFFCD0
:101AE000F8E0800000000000000000000030CEF3AD
:101AF000FDFEFFFF00FFFFFFFFFFFFFFFFFFFF7F78
:101B000080FEFEFEFEFEFEFFFFFFFEFDFBF7EFDEAA
:101B1000308000000000000000010101010101010E
:101B200000010101010101010101010001010101A7
:101B3000010101010101010101010101010000F1A7
:101B4000FFFFFFFFFFFFFFFFFFFFFFFFFFFFFFFFA5
:101B5000FFFFFFFFFFFFFFFC000000000000000090
:101B60000103070F0F1F1F1F1F1FBFFFFFFFFFFFF7
:101B7000FFFFFFFFFFFFFFFFFFFCE0C000000000D2
:101B80000000000000006070787E7F7F7F7F7F7F95
:101B90007F7F7F7F7F7F7F7F7F7F7F7F7F7F7C785F
:101BA0006040211700F18377CFBF7FFEFDFBFAF184
:101BB000F76F98A75F3F7F3F3F9FC6F00000000090
:101BC000000000000000010306050B0A0107071BC7
:101BD000BB3D7E7FFFFEF0F8F1F3E7CF9FAC20C066
:101BE0000000000000000000000000006070783E6F
:101BF0005F6F707A79231F7F7F7F7F7F7F7F7F7FFB
:101C00007E7D7870004000C0F0FCFEFEFEFCF8E037
:101C1000800080C0F0F8FCFEFFFFFFFFFFFFFEFE2C
:101C2000FEFCF8F8F0C02078FCFCFCFCF8F0C0806A
:101C30000000000000000000000001070F1F3F7FB0
:101C4000FFFFFFFFFFFFFFFFFF7FFFFFFFFFFFFF24
:101C5000FFFFFFFFFFFF9FCFFFFCF0F0E1E1C1C3FB
:101C6000C3879FBFFEFCF8F0F0E0E0C080000000FA
:101C7000000000010F1F3F7F7F7F7F7F7C787163B3
:101C80006777717F7F7F7F7F7F7F7F7F7F7F7F7F92
:101C90007F6F1F1F1F1F3F3F3F3F3F3F1F0F07002B
:101CA000331700C0F0FCFCFCF8E0800000000000EE
:101CB000101000E0C8888C84820078C0402020008A
:101CC0000000205898D8E8F0C08000000000000014
:101CD00000000000000001070F1F3F7FFFFFFEF024
:101CE000C4175860001C336BFFBEB8DA7E80C1C2D7
:101CF000860A81C0C0E0E0C0C080818103071E3C2D
:101D0000F8F0E0E0C0C0800000000000000000012A
:101D10000F1F3F3F1F4E7C78706040002020500610
:101D20004B7505766E6E6E5D5D382747070F0F0F9A
:101D30000F1F1E1E19131D0D0600000000F0E0F815
:101D40001C0E070000070301000000080B0000E064
:101D5000C0000000000000030100000000000000BF
:101D600000000000000000000080C0C0E0F0FCFEA9
:101D7000FEFFFFFFFFFFFFFFFFFFFFFFFFFFFFFF74
:101D8000FFFFFFFFFFFFFFFFFFFFFEF80000000067
:101D90000080E0F0F8FCFEFFFFFFFFFFFFFFFFFF0A
:101DA000FFFFFFFFFFFFFFFFFFFFFFFFFFFFFFFF43
:101DB000FFFF7F3F8FE373391D0F03000000F0FE2C
:101DC000FFFFFFFFFFFFFFFFFFFF1F0F1F1F3F7FF3
:101DD000FFFFFFFFFFFFFFFFFFFFFFFFFFFFFFFE14
:101DE000FC1E0703010000000000000000CFFFFF01
:101DF000FFFFFFFFFFFFFFFFFEFEFE0000000000F1
:101E0000017FFFFFFFFFDFFF7F3F3F1F0F3F7FFF90
:101E1000FFFCF8F0C080000000F0FEFFFFFFFFFFB6
:101E2000FFFFFFFFFFFFFFFFFFFFFFFCF8E0C0E049
:101E3000F03B1F1F3F1F0F060000000000000103C2
:101E4000070F3F7FFFFFF0C0010101010101010108
:101E50000101010101010101010101010101010172
:101E60000101000000000000000000000000000070
:101E7000000000010101012F290000000000000006
:101E80000000000000008080C0E0E0F4FCFEFE06E0
:101E9000F8FEFFEF1EFEFDFDFDFDFE7A31AF5F3F58
:101EA0007F0FF3FC033EC07000000000000080E0E4
:101EB000F0F8FCFEFFFFFFFFFF3FCFF6FAFD00FF4B
:101EC000FFFFFF0071EBDBBDBD7E3F5E617F3F0E1C
:101ED0000301000000000000000000F0FEFFFFFF13
:101EE000FFFFFFFFFF1F03040E0E1D3B718C7BFBEA
:101EF000F7F700FFFCF3EF9F7F3F1E80000000001C
:101F0000000000000000000000008FCF6F371B1B97
:101F1000190D0D0C0C0400000000000000007FFFF4
:101F2000FFC00E0D07031108000F3F7FFCF8F0C043
:101F3000000000000000C0FC0701000000000000DD
:101F4000000000000000000000008080000003008E
:101F5000010F0600000000000000000103050E3F15
:101F60007FF0C00000010100000000000000000040
:101F7000000000000000000001010000000000005F
:101F80000000000000000000000000000000000051
:101F90000101010080C0E0F0F8FCFEFEFFFFFFFF42
:101FA000FFFFFEFEFCF8F8F0F0E0C000073FFFFF87
:101FB000FFFFFFFFFFFFFFFFFFFFFFFFFFFF7F3F71
:101FC0000F1F7FFFF8000000071F6170797F7F7F80
:101FD0007F7F7F7F7F7F7E7E7C7C7870404119177A
:101FE00000000000000010A06040000080004040A1
:101FF00060300010E08040000000040484824279D8
:102000000700F0A88FEFFEFCA8C830000007001002
:102010000800000000000000403070787D4B0B523B
:102020004A69364C5C585850400000000080C0E0BF
:10203000F0F0F8FCFCFCFEFEFEFE3E0E82E0F0FC42
:10204000FFFFFFFFFFFFFEFFFFFFFFFFFFFFFFFFA1
:10205000FFFFFFFFFFFFF8F0E1C30F1F3F7FFFFC13
:10206000F0E0800000787E7F7F7F7FFFFFFFFFFF33
:10207000FFFFFFFFF0F0FFDF9FDFFFFFFEFFFFFF2F
:10208000FFFFFFFFFFFFFFFFFFFFFFFFFFFFFFFF60
:10209000FFFFFFFFFFFEF8E09F3F1FFFFFFCC000B8
:1020A000000000000000313F1F3F3F3F3F3F3F3FE8
:1020B0003F3F3F3F3F3F3F3F3F3F3F3F3F3F3F3F30
:1020C0003F3F3F3F3F3F3F3F3F3F3F3F3F3F3F3F20
:1020D0003F3F3F3C30000103013A16000000008002
:1020E000C0E06070303818181C0C0C000080E0F064
:1020F000FC1F0F0783C0F0F4F5F5EDEB5B307F318B
:10210000165BEBEBEBE8F0E0C001030F1F3F7CF048
:10211000E08000000000303C0F07010000000000DC
:1021200000000000000000030003C5F6783EDFEF6A
:10213000F7FBF9F5ECDCBE727A72BEDCECF4F9FB6D
:10214000F7F7EF9F7EF8E080001F03073CC0000018
:1021500000000000000000110E1820000000000028
:10216000000010263B3C033C3F3F3F3F3F3F3F3F8B
:102170001F0F00071F3F3F3F3F3F3F3F3F3F380696
:102180003D332C100000000100000080C0F0F8FC7E
:10219000FCFEFEFFFFFFFFFFFFFFFEFEFCF8F8F076
:1021A000E0E0C00000000C3FFFFFFFFF7FFFFFFFEC
:1021B000FFFFFFFFFFFFFFFFFFFF7F7FFFFF7F01AD
:1021C00000000000000003CFE3F0F0F1FBFBF9FF9B
:1021D000FFFFFFFFFCF9F8F8F0F1F7E0C0E070381E
:1021E000000000C0FFFFFFFFFFFFFFFFFFFFFFFF3B
:1021F000FFFFFFFFFFFFFFFFFFFFC00000E0E0F871
:10220000FFFFFF7FFFFFFFFFFFFFFFFFFFFFFFFF5E
:10221000FFFF3FFFFFFFFFF9E0E0010101010101C6
:1022200000010101010101010101010101010100A0
:10223000000101010101011D2900000000C0300062
:1022400008181000C0801010180804000830C08062
:10225000000000000000000404423F600000003065
:1022600057C7F77F7AEAE2380000003F0811010003
:102270000000000000000000C0E0E0E0D0D0B0B9F5
:1022800065456D4460B0B0D0C0E0E0C00000000023
:1022900000000000C0F703F5EEEFDFDFDFBD7B07D6
:1022A0007BBDBFDFDFDFED0BE7C000000000C0C07B
:1022B000D8B9770F1C93CFDFCFEF07E306EFCFDF5F
:1022C0009F0F131CCF77B9C0C000000101010100AE
:1022D00000000101010101000100010101010000F4
:1022E00000000101010100C0E070381C0E07030866
:1022F000080000000000000000E0FCFFFE78E0FCA9
:10230000FEFEFEFE9C7CFEFFFE071F0F03000FE794
:102310006FBF3F1F3D78C14781101000806078205B
:10232000004040F0DC980018643000000503000015
:10233000000006040905080000010000084C46E7FB
:10234000EF7E7EFCFCFEFFFFFE1800387C7C381020
:10235000181C1EDEFFFFFFFF7E3E1C101000000059
:102360000042462C2C30180CEECE1800000018103D
:1023700010000008080442205336000C0080F0FCD6
:10238000F8E0C8DCFEFFFEFFFEF0F0E0001F0305F2
:10239000FFFE7F7FFFFFFF7F7FF7E37110101000CC
:1023A00000000000000888C07CD88020E000000009
:1023B0000000046422212C5B7B3003634000000892
:1023C0000B000202020000090400000102020000EA
:1023D000052400100105240101010424020605243E
:1023E0000600010705810310004009040100020AEC
:1023F00000000007050202400000070583024000BC
:10240000000403090412010002EF020140412336D7
:102410008000010102030141726475696E6F204CF6
:102420004C430041726475626F790000811C112475
:102430001FBECFEFDAE0DEBFCDBF13E0A0E0B1E01A
:10244000E0E4F7E602C005900D92A837B107D9F78E
:1024500028E0A8E7B3E001C01D92A132B207E1F77E
:1024600012E1C7E1D2E104C02197FE010E94983336
:10247000C631D107C9F70E949E1C0C949E330C9460
:1024800000004F925F927F928F929F92AF92BF9285
:10249000CF92DF92EF92FF920F931F93CF93DF9330
:1024A000DC01FA01F4903196E491CF2DD0E08E0159
:1024B000080F191F101611060CF0ACC080389105DA
:1024C0000CF0A8C0CB018E0F911D181619060CF048
:1024D000A1C0603471050CF09DC0F62FF7707F2EFF
:1024E000CB0177FD0796F3E095958795FA95E1F78F
:1024F000F82F77FF04C0772011F0FFEFF80F662761
:1025000077276A1B7B0BB7FD02C070E060E080E8B4
:10251000882E8A1A003811050CF48F2C861A0F2F7A
:102520000F2E000C110BE02EE094FF3F0CF0E12C7D
:1025300091E08E2F877009F490E0E695E695E69598
:102540009E0F090F111D0930110514F098E09F1B13
:102550009E2C9F0E092D10E8010360011124AC0D83
:10256000BD1DA60FB71FFE9C600D711D11244E5F8F
:102570005F4F460F571F072D072C000C110B260F1E
:10258000371F9F0F991509F445C0BD0163537C4F58
:102590007B01D12CC12CC814A8F5F901EC0DFD1D4F
:1025A000649170E0002E02C0660F771F0A94E2F774
:1025B00060957095FA01EC0DFD1DE491F0E02F019E
:1025C000002E02C0440C551C0A94E2F797FC05C08B
:1025D000F7018081862384298083772061F0F6E0EB
:1025E000F9154CF0570180E8A80EB11CF501808167
:1025F000872385298083FFEFCF1ADF0A6FEFE61A62
:10260000F60AC9CF93944C0F5D1F2C0F3D1FA058A5
:10261000BF4FB8CFDF91CF911F910F91FF90EF90F7
:10262000DF90CF90BF90AF909F908F907F905F9002
:102630004F9008956034710598F59C01285F3F4FD5
:102640002838310568F5AC0197FF02C050E040E042
:1026500009968138910514F080E890E0841BFB0115
:10266000E770FF2721E030E001C0220FEA95EAF78A
:102670002095FB0193E0F595E7959A95E1F7F6959E
:10268000FE2FEE27F795E795E40FF51FE353FC4F78
:10269000815030F09191DF01119792239C93F8CFF4
:1026A0000895EDECF3E0A0E0B8E000800EBC8111ED
:1026B000012C1197A0FDFDCF0192B9F70DB408953B
:1026C000FC018091CC03882311F13FB7F89482E09C
:1026D0008093E9002091F200822F90E018161906ED
:1026E00014F481E090E0882339F0289844E6409380
:1026F000CB034091F1004083222339F02091F20076
:10270000211103C02BE62093E8003FBF08958FEF0F
:102710009FEF08952FB7F89483E08093E90090919C
:10272000E800892F807295FF04C09091F20080E448
:10273000891B2FBF08958091C30381110DC082E0D2
:102740008093BF0384E08093C0031092C203109271
:10275000C10381E08093C3038FEB93E00895CF938F
:10276000DF931F92CDB7DEB76983DC01ED91FC9159
:102770000280F381E02D41E050E0BE016F5F7F4FAA
:1027800009950F90DF91CF91089583E08093E90040
:102790008091F200882319F08AE38093E80008957D
:1027A0000E948A1390E00895CF93DF931F92CDB7D4
:1027B000DEB7FC018485958597FD08C02FEF3FEFBC
:1027C000358724870F90DF91CF910895CE01019630
:1027D0000E946013019719F4898190E0F3CF8FEF85
:1027E0009FEFF0CF0F931F93CF93DF931F92CDB73F
:1027F000DEB78C01FC018485958597FF0BC0CE0167
:1028000001960E946013019771F4898190E0F801AC
:1028100095878487F801848595850F90DF91CF9106
:102820001F910F9108958FEF9FEFF1CFFC018485E9
:10283000958597FD0BC09FB7F89482E08093E900DF
:102840008091F2009FBF90E0019608959FB7F894A1
:1028500082E08093E9008091F2009FBF90E00895AC
:102860004091B9035091BA032091B7033091B80356
:1028700042175307B4F49091E8009570E1F39091FA
:10288000E80092FD19C08093F1008091B903909106
:10289000BA0301968F739927892B19F48EEF8093D1
:1028A000E8008091B9039091BA0301969093BA031E
:1028B0008093B90381E0089580E00895DF92EF925C
:1028C000FF920F931F93CF93DF93D82E8A01EB01D2
:1028D0007B01E40EF51ECE15DF0559F0D7FE12C0C0
:1028E000FE0184910E94301421968111F4CF0FEFE4
:1028F0001FEFC801DF91CF911F910F91FF90EF90D3
:10290000DF9008958881EECF0F931F93CF93DF93CD
:102910001F92CDB7DEB782E0898342E450E06FEBCF
:1029200073E280E80E945E140E949B13DC01129601
:102930000D911C910115110589F0D801ED91FC91C3
:102940000280F381E02DBE016F5F7F4FC8010995C2
:1029500097FD04C0F80100851185ECCF89810F90A7
:10296000DF91CF911F910F910895615030F0209128
:10297000F100FC0120830196F8CF289884E680932B
:10298000CB030895AF92BF92CF92DF92EF92FF9266
:102990000F931F93CF93DF936C017B018B01040F87
:1029A000151FEB015E01AE18BF08C017D10759F023
:1029B0006991D601ED91FC910190F081E02DC60165
:1029C0000995892B79F7C501DF91CF911F910F915F
:1029D000FF90EF90DF90CF90BF90AF9008953FB7FA
:1029E000F8948091790390917A03A0917B03B09140
:1029F0007C0326B5A89B05C02F3F19F00196A11DA9
:102A0000B11D3FBFBA2FA92F982F8827BC01CD0138
:102A1000620F711D811D911D42E0660F771F881F97
:102A2000991F4A95D1F708958F929F92AF92BF92C6
:102A3000CF92DF92EF92FF926B017C010E94EF1424
:102A40004B015C01C114D104E104F104B9F00E940E
:102A5000EF14681979098A099B09683E734081055A
:102A6000910580F321E0C21AD108E108F10888EE4F
:102A7000880E83E0981EA11CB11CE4CFFF90EF905C
:102A8000DF90CF90BF90AF909F908F9008958F92DE
:102A90009F92AF92BF92CF92DF92EF92FF920F93ED
:102AA0001F93CF93DF936C017B018A0180914601D4
:102AB000882309F45CC08091CC03882309F457C0B3
:102AC0008091BE0380FF05C08091E000826080930A
:102AD000E000E801B12C8AEFA82E93E0892E2AE3CA
:102AE000922E209711F4BB20D9F10E948A138111F4
:102AF0000AC0AA94AA20D9F161E070E080E090E0D9
:102B00000E941415EECF8C171D0611F00CF08C2FBF
:102B10009FB7F8948092E9002091E80025FD02C05B
:102B20009FBFDFCF282F30E0C21BD30BF7018150AE
:102B300020F041914093F100FACFE20EF31EBB204A
:102B400021F09092E800B12CEBCF8091E80085FD58
:102B5000E7CF9092E800BB24B394209709F3F3CF1A
:102B60005D9884E68093BD03101611063CF081E069
:102B700090E0F6019383828310E000E0C801DF91CA
:102B8000CF911F910F91FF90EF90DF90CF90BF906A
:102B9000AF909F908F9008952D9A0895BC0190E07A
:102BA00080E00C9414158FB18095807F669B8860BF
:102BB0001C9B8460089590918503982329F490913B
:102BC0008603982381E009F480E0089580E00C9466
:102BD000511380389105B8F460347105A0F420E1F8
:102BE00091E061FD94E060FD990F62FD9295687F30
:102BF000269FD0011124A80FA353BC4F8C9140FFF6
:102C000003C0892B8C93089590958923FBCF2F9235
:102C10003F924F925F926F927F928F929F92AF926C
:102C2000BF92CF92DF92EF92FF920F931F93CF93B9
:102C3000DF9300D000D0CDB7DEB77C018B01242F0D
:102C400030E03C832B8381E090E05C01A21AB30A60
:102C50001901319421943108220C331CB901600F01
:102C6000711F40E0C7010E94E915B8018B819C816A
:102C7000681B790B40E0C7010E94E91540E0B801EC
:102C80008B819C818E0D9F1D0E94E91540E0B8014B
:102C9000C7012B813C81821B930B0E94E915D12C2B
:102CA000C12C81E090E09A8389832B813C81C216FC
:102CB000D3060CF05DC0B7FC09C0215031093C833C
:102CC0002B8332E0230E311CA20CB31C8FEFC81AE9
:102CD000D80A29813A812E5F3F4F3A832983A20E79
:102CE000B31E37016C0C7D1C40E08B809C80800EF5
:102CF000911EB401C3010E94E91527014C185D081B
:102D000040E0B401C2010E94E91540E048018B8116
:102D10009C81881A990AB401C3010E94E91540E018
:102D2000B401C2010E94E9154601800E911E40E0E7
:102D3000B4016B807C806E0C7F1CC3010E94E9157E
:102D400040E0B40127012B813C81421A530AC201A1
:102D50000E94E91548018C189D0840E0B401C301A8
:102D60000E94E91540E0B401C2010E94E9159DCF1F
:102D70000F900F900F900F90DF91CF911F910F91B7
:102D8000FF90EF90DF90CF90BF90AF909F908F908B
:102D90007F906F905F904F903F902F9008956F922B
:102DA0007F928F929F92AF92BF92CF92DF92EF92DB
:102DB000FF920F931F93CF93DF936D3089F0C090F4
:102DC0008903D0908A036A30E1F41092880310924C
:102DD000870388E0C80ED11CD0928A03C092890371
:102DE00081E090E0DF91CF911F910F91FF90EF90E4
:102DF000DF90CF90BF90AF909F908F907F906F901B
:102E0000089560900101E0908703F0908803E5E069
:102E10006E9FE0011124C455DF4F570100E010E020
:102E2000053029F0CE010196FE011491EC01460116
:102E300088E0782E412F417010FD1BC0662021F0E4
:102E4000B401C5010E94E91516957A94FFEF8F1A17
:102E50009F0A7110EFCF0F5F8FEFA81AB80A0630E4
:102E6000F1F6E6E0EE0EF11CF0928803E0928703A3
:102E7000B7CF462DE5CFDF92EF92FF920F931F93CE
:102E8000CF93DF937C01D22E8B01040F111DEB0138
:102E900077FF02C0D0E0C0E0C8010134110514F092
:102EA00080E490E0C817D9073CF44D2DBE01C7015E
:102EB0000E94E9152196F0CFDF91CF911F910F91DC
:102EC000FF90EF90DF9008952F923F924F925F9284
:102ED0006F927F928F929F92AF92BF92CF92DF922A
:102EE000EF92FF920F931F93CF93DF9300D01F9227
:102EF000CDB7DEB76C015B01842F90E09B838A83A2
:102F0000440F4F5F681B790B21E0C6010E943B17FD
:102F100001E010E0EA81FB810E1B1F0B1F013194C1
:102F200021943108220C331CF12CE12C662463948B
:102F3000712C8A819B81E816F9060CF042C017FDBE
:102F400008C001979B838A8392E0290E311C020DF1
:102F5000131DEFEFEE1AFE0AF2E06F0E711C060D64
:102F6000171D8A81880F8F5F898321E0482F2501F3
:102F70008A819B81481A590AB201C7018C0D9D1D97
:102F80000E943B1745018E189F0821E0462DB40191
:102F90008A819B818C0D9D1D0E943B1721E04981F8
:102FA000B201C6018E199F090E943B1721E0462DF0
:102FB000B401C601EA81FB818E1B9F0B0E943B1767
:102FC000B8CF0F900F900F90DF91CF911F910F917D
:102FD000FF90EF90DF90CF90BF90AF909F908F9039
:102FE0007F906F905F904F903F902F900895CF9279
:102FF000DF92EF92FF920F931F93CF93DF936B01BA
:10300000122FEC017C01E40EF11CCE15DF0544F417
:10301000202F412FB601CE010E943B172196F5CFFC
:10302000DF91CF911F910F91FF90EF90DF90CF90A4
:1030300008952F923F924F925F926F927F928F925C
:103040009F92AF92BF92CF92DF92EF92FF920F9337
:103050001F93CF93DF9300D01F92CDB7DEB79B8332
:103060008A837B016A0109838901061B170B17FFFD
:1030700003C011950195110946018A819B81881A27
:10308000990A97FE03C09194819491088016910645
:103090005CF49C2D8D2D6901292F382F9A818B810D
:1030A000FB82EA82E92EF82E8A819B81C816D90616
:1030B0005CF49E2D8F2D7901292F382F9A818B81D9
:1030C000DB82CA82C92ED82E16018A819B81281ADA
:1030D000390A29014E185F0857FE03C051944194E4
:1030E0005108310137FE03C09FEF691A790A7594C0
:1030F00067948FEFE216F3060CF481E0A82E880F98
:10310000BB088A819B81C816D906CCF04981BC01D5
:10311000C701801691061CF0B7018A819B810E942D
:10312000E9156418750877FE04C0EA0CFB1C620CF4
:10313000731C8A819B8101969B838A83E2CF0F90C7
:103140000F900F90DF91CF911F910F91FF90EF9013
:10315000DF90CF90BF90AF909F908F907F906F90B7
:103160005F904F903F902F9008951092AD0381E0B3
:10317000809331011092AE0387E08093300108956F
:1031800089E18093AD0388E0809331011092AE0312
:1031900008958AE18093AD0388E080933101109215
:1031A000AE030895089590E080E008958F929F9275
:1031B000AF92BF920F931F93CF93DF93CDB7DEB73C
:1031C000A1970FB6F894DEBF0FBECDBF19A2423053
:1031D00008F44AE08E010F5D1F4F842E912CB12C14
:1031E000A12CA50194010E943333E62FB901CA0135
:1031F000EA3044F5E05DD801EE938D01232B242BBA
:10320000252B79F790E080E0109769F0FD0101909F
:103210000020E9F73197AF014A1B5B0BBD018DE13F
:1032200098E00E94C214A1960FB6F894DEBF0FBEBC
:10323000CDBFDF91CF911F910F91BF90AF909F9025
:103240008F900895E95CD7CFFC0101900020E9F749
:103250003197AF01481B590BBC018DE198E00C94EC
:10326000C214CF92DF92EF92FF92CF93DF936C0163
:10327000990FEE08FF08F7FE19C06DE28DE198E0A6
:103280000E94CF16EC0166277727CB016C197D09C8
:103290008E099F094AE00E94D6188C0F9D1FDF916E
:1032A000CF91FF90EF90DF90CF9008954AE0C70153
:1032B000B601DF91CF91FF90EF90DF90CF900C940B
:1032C000D6180C94EB321F920F920FB60F92112466
:1032D0008F939F938091E1009091E100937F909371
:1032E000E10083FF0FC01092E90091E09093EB00A2
:1032F0001092EC0092E39093ED001092CC0398E0D2
:103300009093F00082FF22C093E09093E9009091A7
:10331000F200992319F09AE39093E8009091BD038D
:10332000992341F09091BD0391509093BD03911169
:1033300001C05D9A9091CB03992341F09091CB030A
:1033400091509093CB03911101C0289A84FF18C02B
:103350008091E2008E7E81608093E2008091E100A6
:103360008F7E8093E1008091BE038E7E806180938A
:10337000BE039F918F910F900FBE0F901F901895D5
:1033800080FFF7CF8091E2008E7E80618093E20023
:103390008091E1008E7E8093E1008091BE038E7E5D
:1033A0008160E5CF1F920F920FB60F921124CF923A
:1033B000DF92EF92FF920F931F932F933F934F93C0
:1033C0005F936F937F938F939F93AF93BF93EF938D
:1033D000FF93CF93DF93CDB7DEB76C97DEBFCDBF42
:1033E0001092E9008091E80083FF25C068E0CE01DB
:1033F00045960E94B51482EF8093E8008D8987FF7F
:1034000039C09091E80090FFFCCF982F907609F09A
:1034100034C19E894F89588D2F89F88C911131C004
:10342000803861F58091BC038093F1001092F10027
:103430008EEF8093E8006C960FB6F894DEBF0FBE57
:10344000CDBFDF91CF91FF91EF91BF91AF919F9150
:103450008F917F916F915F914F913F912F911F912C
:103460000F91FF90EF90DF90CF900F900FBE0F90D5
:103470001F9018959EEF9093E800C7CF1092F1002F
:10348000D5CF913059F48111D3CF4130510581F618
:103490008091BC038D7F8093BC03CACF933049F4E5
:1034A0008111C6CF4130510519F68091BC0382606D
:1034B000F2CF953041F48091E80080FFFCCF206886
:1034C0002093E300B5CF963009F0A9C00B8D1C8D79
:1034D00022E01092E9001092BA031092B903F2129E
:1034E0002EC01092B8031092B7030E9484141F825A
:1034F00099E09983FA8291E09E8390EA98879AEF07
:1035000099872091B9033091BA03275F3F4F3C83DD
:103510002B838D831092E9001092BA031092B903A5
:103520001093B8030093B70349E050E0BE016F5F0A
:103530007F4F80E00E945E140E94841479CF109324
:10354000B8030093B7030E949B13DC0112960D9100
:103550001C910115110509F451C1D801ED91FC919F
:103560000480F581E02DBE016B5E7F4FC801099597
:10357000009709F03EC1F80100851185EACFF3E01C
:10358000FF120EC08F89882309F440C0823061F495
:1035900040E867E083E294E20E944E1C811148CF2C
:1035A00081E28093EB0047CF813029F440E86BE063
:1035B00087E194E2F1CF833099F70E949B13DC01FD
:1035C0001296ED90FC908E010F5F1F4F6801E11481
:1035D000F10479F0D701ED91FC910680F781E02D9F
:1035E000B801C7010995080F111DF701E084F184A6
:1035F000EECFD8011C92F60101900020E9F7319737
:10360000BF016C197D0940E0C601C6CF61E074E2DC
:10361000FB01449150E080E80E945E1409CF97308E
:1036200009F4BECF983021F481E08093F10000CFFF
:10363000993009F0FDCE837009F0B2CFECE6F1E0ED
:1036400081E031E096E32191222371F08093E9003B
:103650003093EB00DF0111972C912093EC009093B5
:10366000ED008F5F873079F78EE78093EA00109244
:10367000EA008F898093CC03DBCE8B8D9C8D1092DA
:10368000E9001092BA031092B9039093B8038093A3
:10369000B703898D811192C08E899D89913A49F431
:1036A000813209F07DCF47E050E06FE371E080E0C8
:1036B000B3CF913209F074CF833269F48F89988D3A
:1036C000B0E0A0E080933B0190933C01A0933D01CA
:1036D000B0933E01ADCE803269F48091E80082FF64
:1036E000FCCF67E08FE391E00E94B5148BEF8093ED
:1036F000E8009ECE823209F09BCE8F8980934601EE
:10370000EEEFFFE7859194918B3F9C4D51F1E0E006
:10371000F8E080913F0190914001A0914101B0916A
:103720004201803B9440A105B105F1F4809146012E
:1037300080FD1AC0EE3F8AE0F80789F587E797E732
:1037400091838083809160008093BB0388E19BE03C
:103750000FB6F894A895809360000FBE9093600018
:1037600067CEEEEFFAE0D5CF80819181873797471A
:1037700009F05ECEA895809160008861809360001A
:103780008091BB0380936000EE3F2AE0F20789F04E
:103790008091FE0A9091FF0A9183808349CE8081B7
:1037A00091818737980751F29093FF0A8093FE0A20
:1037B000C5CF1092FF0A1092FE0A3ACE0E949B13C8
:1037C000DC0112960D911C910115110509F4E8CE4A
:1037D000D801ED91FC910190F081E02DBE016B5E6E
:1037E0007F4FC8010995811123CEF801008511850D
:1037F000EBCF181619060CF41BCED2CEF1E0FF1257
:10380000BECE65E074E204CF1F920F920FB60F9206
:1038100011242F933F938F939F93AF93BF938091E6
:103820007D0390917E03A0917F03B091800330913E
:10383000780323E0230F2D3758F50196A11DB11D04
:103840002093780380937D0390937E03A0937F035E
:10385000B09380038091790390917A03A0917B03C8
:10386000B0917C030196A11DB11D809379039093C3
:103870007A03A0937B03B0937C03BF91AF919F9198
:103880008F913F912F910F900FBE0F901F90189521
:1038900026E8230F0296A11DB11DD2CFEF92FF9211
:1038A0000F931F93CF93DF93F82E192FE62E042F3B
:1038B00081E0860F880F0E94301483E00E9430144C
:1038C000CF2DD12FEC0EFD2EF11CCE15DF05B9F05A
:1038D00007FF13C0FE0184910E943014182F80E06E
:1038E0000E943014812321968111EFCFDF91CF9177
:1038F0001F910F91FF90EF9008958881EDCF81E0A7
:10390000F5CFEDECF7E01382128288EE93E0A0E0B1
:10391000B0E084839583A683B78386E791E09183A3
:1039200080838FEF9FEF95878487EDE1F8E0138226
:10393000128288E891E0918380830895CF93DF938A
:10394000CDB7DEB72B970FB6F894DEBF0FBECDBF55
:10395000789484B5826084BD84B5816084BD85B56A
:10396000826085BD85B5816085BD80916E00816076
:1039700080936E001092810080918100826080931C
:10398000810080918100816080938100809180001E
:10399000816080938000809191008260809391008B
:1039A000809191008160809391008091900081606E
:1039B000809390008091C10084608093C1008091C9
:1039C000C10082608093C1008091C10081608093BA
:1039D000C1008091C30081608093C3008091C000CA
:1039E00082608093C0008091C20081608093C20099
:1039F00080917A00846080937A0080917A0082605E
:103A000080937A0080917A00816080937A0080911F
:103A10007A00806880937A001092CC031092BC03E5
:103A20001092BE038091D70081608093D70080EA16
:103A30008093D80089B5806189BD89B5826089BDD0
:103A400009B400FEFDCF61E070E080E090E00E94EC
:103A500014158091D8008F7C80618093D80080916C
:103A6000E000807F8093E0008091E1008E7E809373
:103A7000E1008DE08093E200559A209A81EC8093DA
:103A80007C0085B1806F85B984B1877E84B984B1AB
:103A9000876E84B95E9A5F988AB1806D8AB9769A8A
:103AA0006E9881B3806F81BB899880B38D7080BB25
:103AB00080E58CBD81E08DBD85E090E00E94CE1553
:103AC0005F9A85E090E00E94CE155E985C98ECE5E8
:103AD000F6E089E696E024912EBD00000DB407FEC5
:103AE000FDCF31968E179F07B1F75C9A81E88093DE
:103AF0006400809165008160809365000E94E615F6
:103B00000E94D31587FF15C05C9885EA8EBD000022
:103B10000DB407FEFDCF5C9A2E982F982D988091BA
:103B2000640080628093640081E083BF889513BE47
:103B3000FCCF0E94D31582FF48C02D980E94D31558
:103B400084788438E1F40E94CC1588EC90E00E94DF
:103B5000CE152F9882E090E00E94EB328F3F29F043
:103B60006FEF82E090E00E94F33284EF91E00E94D8
:103B7000CE152F9A0E94D31584788438D9F30E94E9
:103B8000D31584718431E1F40E94CC1588EC90E067
:103B90000E94CE152E9882E090E00E94EB3288239E
:103BA00029F060E082E090E00E94F33284EF91E03F
:103BB0000E94CE152E9A0E94D31584718431D9F3B8
:103BC00088EC90E00E94CE15B4CF0E94CC1582E024
:103BD00090E00E946119882309F476C03E9A3F9ACA
:103BE00081E090E00E946119082F0470F02E81FF9F
:103BF00011C001112E9811EF212E33243A9408E0C0
:103C0000A02EB12C0E94D31586FF61C02E9A2F9A48
:103C10000E94CC1582E390E00E94CE150E94D3153D
:103C20008111F8CF80E180930001809164008E7F44
:103C30008093640080917A00806480937A00809100
:103C40007A0086FDFCCF00917800109179000E94E7
:103C5000EF14AB01BC01C801B0E0A0E0DC01992782
:103C600088278C019D01040F151F261F371FC901CE
:103C7000B8012091640021602093640061157105F2
:103C80008105910511F00E94E23276E0272E312C59
:103C9000E2E14E2E512C8FB7F89440917D03509164
:103CA0007E0360917F03709180038FBF80918303B7
:103CB000882309F4D1C01092830380E090E0892B1F
:103CC00051F30E940000E1CF3E983F9889CFFF203A
:103CD00031F014E02116310411F42E9A2F9881E06E
:103CE0000E945113910137FE04C022273327221965
:103CF000330927703327C10137FC0796B3E0959548
:103D00008795BA95E1F737FE05C00197A501421BDB
:103D1000530B9A01BC017695762F662777956795A8
:103D2000635B7B4FB0E0A0E03501621A730A8E3FFF
:103D30005FEF9507C1F18B010058110950E040E099
:103D4000FD01E455FA4F4F018F3F980779F0F401D8
:103D5000E40FF51FE491F0E06F01022E01C0CC0CDE
:103D60000A94EAF7F801E488CE28C48A21153105BF
:103D700099F0F401E40FF51FE4916B01C40ED51E18
:103D8000F0E02F01062C02C0559447940A94E2F704
:103D9000F601E4884E28448A4F5F5F4F0F5F1F4F44
:103DA0004835510589F60196A85ABF4F60587F4F94
:103DB000A03BB10509F0BBCF0E94E6158FE090E073
:103DC0000E94CE15FFEF2F1A3F0A09E12016310499
:103DD00009F018CFFF2011F02F9A2D9880E991E07B
:103DE0000E94CE150E94CC1581E090E00E946119DE
:103DF00080FF10CF8AE090E00E9461199FEF980F3A
:103E00009E3F08F007CF22E330E0309388032093F1
:103E1000870328E330E030938A03209389030BE083
:103E200010E01B870A87682F8DE198E00E94CF166B
:103E30008A859B850E9461190A851B850F5F1F4F2C
:103E40001B870A870131110571F70E94E61588EE7C
:103E500093E00E94CE15DECE90918403142F191B9F
:103E6000912F20910001121748F49F5F921708F0DC
:103E700024CF81E083BF889513BE1FCF91E090933C
:103E800083034093840320918103309182032F5F49
:103E90003F4F3093820320938103EDECF3E08111D7
:103EA0008FEF002481938193819381930394D1F7C1
:103EB00010928A031092890310928803109287034C
:103EC0001092B6031092B5031092B4031092B3038C
:103ED0001092B2031092B1038091390190913A018E
:103EE00097FF04C010923A01109239018091370176
:103EF0009091380197FF04C0109238011092370159
:103F00000091390110913A0120913501309136012B
:103F100040913701509138015B874A878091330186
:103F20009091340144E00217130714F42150310931
:103F30006A857B85681779070CF40197EA85FB850C
:103F40008E179F070CF40196415069F79093340146
:103F5000809333013093360120933501809186039D
:103F6000809385030E94D3158093860380E20E948C
:103F7000DB15F0903201882399F08091B00390E036
:103F80002F2D2F7D293009F49FC0029663E070E049
:103F90000E9470338093B003F8E0FF1609F49AC0D2
:103FA00080E40E94DB15882399F08091B00390E0B3
:103FB00001962F2D2F7D293009F49AC063E070E01F
:103FC0000E9470338093B00328E0F21609F495C084
:103FD00088E00E94DB15882359F038E0F3129BC07B
:103FE0008091AE0390E00196877099278093AE038D
:103FF00084E00E94DB15882309F4D7C18091310148
:10400000811132C080913201863091F11016110673
:104010000CF095C10A851B85101611060CF085C1A0
:10402000873009F08BC081E0809332011092AD039C
:10403000809331010091A3030E94933226E030E087
:1040400040E050E00E940133862F061305C090E047
:104050000196B1010E9470338093A3038091AA035B
:10406000813011F41092A303809132018630B9F4AB
:1040700080913101811113C087E08093300181E08C
:1040800090E090933801809337018091A2038431AE
:1040900009F05CC185E6809332011092AE038091F5
:1040A0003101811182C1109132011987183009F054
:1040B0005BC10E94C91881E08093A10389E08093CD
:1040C00032011092B00371C10196817099278093DB
:1040D000B00366CF8091AF0390E0029663E070E09A
:1040E0000E9470338093AF0384E08093310158CFF6
:1040F000817099278093B0036BCF8091AF0390E0DC
:10410000019663E070E00E9470338093AF0384E017
:10411000809331015DCF43E64F1508F069CF809160
:104120003101811165CF88E0809332011092AD0397
:1041300085E0809331011092AE035ACF813009F0AF
:1041400060C08091B003811114C085E18093AD03FC
:1041500080E2809331011092AE0384E080933201BB
:1041600082E08093AC0389E18093AB031092AA03B1
:1041700061CF8130D9F492E09093AD032CE020938D
:1041800031019093AE03909332018093AA03E091A2
:104190003001F0E0ED59FE4F80811AE0819FC001AF
:1041A00011249093A9038093A80344CF823009F08F
:1041B00041CF80912E0190912F01009709F43ACFC1
:1041C00023E02093AD0330E1309331012093AE031F
:1041D00022E0209332012093AA03E0913001F0E025
:1041E000E55AFE4F20814FE0249F90011124309327
:1041F000A9032093A803019790932F0180932E0188
:1042000019CF843009F044C081E08093AD039CE075
:10421000909331018093AE0382E08093320110923B
:10422000AC03E0913001F0E0ED5AFE4F608155E0C3
:10423000659FC00111249093A9038093A8038091E6
:10424000A6039091A503890F9927991FAC014E5F92
:104250005F4F20912C0130912D014217530744F0FC
:1042600074E1679F900111243093A9032093A80360
:104270000A9709F0DFCE8EE1689FB0011124709398
:10428000A9036093A80310922D0110922C01D2CEA5
:10429000823091F486E18093AD0380E28093310116
:1042A0001092AE0385E08093320183E08093AC03EB
:1042B00089E18093AB03BECE853051F58BE08093CE
:1042C000AD0384E1809331011092AE0383E08093CB
:1042D00032012091A7038091A603280F3327331FB3
:1042E0008091A503280F311D2D5F3F4F8091A403BE
:1042F00090E00196289FA001299F500D389F500DF6
:1043000011245093A9034093A8031092AC0392CEBA
:10431000833009F08FCE1092AD0381E0809331019C
:104320001092AE038093320185CE86E080933201F5
:1043300089E18093AD0388E08093310195CE84E6D6
:104340008093320187E08093AE038ECE1092AD034E
:1043500091E0909331011092AE039AE09093320174
:104360008F5F8093A2039BCE0985093009F058C165
:104370000E94C01887E0809330018AE08093320168
:104380008091B0038093A0031092B00380919F03AB
:104390008F5F80939F030E94933224E030E040E0DF
:1043A00050E00E94013360939E038091320182307D
:1043B00009F0B1C280913101813081F48091AA036A
:1043C00081110CC020919A0380912C0190912D01B4
:1043D000820F911D90932D0180932C0180912C01CF
:1043E00090912D0197FF04C010922D0110922C0185
:1043F00080912E0190912F0197FF04C010922F0100
:1044000010922E0180912C0190912D010D9734F086
:104410008CE090E090932D0180932C0180912E01EF
:1044200090912F010D9734F08CE090E090932F0144
:1044300080932E011091AD03198711501A87133004
:1044400090F480913101813071F480913701909125
:1044500038012091A8033091A903821B930B9093FC
:1044600038018093370189858B50833030F58091F6
:104470003101813011F52091A8033091A903809179
:10448000390190913A01821B930B90933A018093EA
:1044900039018091AA03813081F480919B0381309E
:1044A00061F4263031054CF080912E0190912F015E
:1044B000019690932F0180932E0101E020E440E8C3
:1044C00070E060E090E080E00E94F7171A851330FA
:1044D000A0F58091310198EF980F943050F42CE0C2
:1044E00030E0281B3109220F331F3093B60320938D
:1044F000B5039AEF980F923060F4482F4650550B51
:104500009A01220F331F220F331F3093B6032093DB
:10451000B5031985113089F4853018F590919A0307
:104520009130F9F4817089831A8289819A81880F88
:10453000991F9093B4038093B3038985825082308E
:1045400008F07DC280913101853058F481708B83F1
:104550001C828B819C81880F991F9093B403809358
:10456000B30310E00AE025E0D22E8091AB03409126
:1045700032019091AC03191708F0EAC2212F30E004
:10458000B901660F771F7B876A87FB01EE56FC4FE8
:1045900011821082FB01E457FC4F118210828823A4
:1045A000E9F1602F0E946433913091F4443009F0B6
:1045B000B6C280919C03813009F0B1C2113009F07C
:1045C000AEC28091A60381707D2D781B7093A603E7
:1045D0002091AB03822F602F0E946433382F65E057
:1045E00070E0691B7109EA85FB85E457FC4F669F03
:1045F000C001679F900D900D1124499763E070E012
:10460000631B71090E947033718360834A855B85E7
:104610004E565C4F30E0FA01318320831F5FA5CFF7
:1046200019851A3009F083C04091A203842F90E0CD
:1046300020919F0354E0259F9001112428173907EA
:1046400041F4443131F00E94C91887E08093300171
:1046500032CD27E0209330011092B003E091A00307
:10466000880F991F8E5F9E4FE80FF92FF11D8081F3
:10467000813041F50E94C9181092A1030E94933223
:104680002091A003220F03E0021B24E030E040E071
:1046900050E00E940133600F609330018091A203CB
:1046A000843111F410923001E0913001F0E0E55BCB
:1046B000FE4F808190E0909338018093370187E02E
:1046C00080933201E091A203F0E08091A003EE0F0D
:1046D000FF1FEE5FFE4FE80FF11D108119871230AA
:1046E00041F40E94C9181093A1038BE0809332011A
:1046F0005CCE0985033031F40E94C9180093A103F0
:1047000084E1F4CF1985143039F40E94C91885E08A
:104710008093A1038EE1EACF0985053009F045CEEB
:104720000E94C91886E08093A10388E2DFCF198533
:104730001B30A9F50E94933223E030E040E050E0C6
:104740000E94013360939D031092AA03623091F09E
:1047500086E18093AD0380E2809331011092AE0335
:104760008CE08093320183E08093AC0389E18093F5
:10477000AB031BCE09850093AD0384E18093310127
:104780001092AE038DE0809332011092A903109233
:10479000A8031092AC0381E08093A30306CE198591
:1047A0001C3041F58BE08093AD0384E180933101AF
:1047B0001092AE038DE0809332012091A703809187
:1047C000A603280F3327331F8091A503280F311D1F
:1047D0002D5F3F4F8091A40390E00196289FA00198
:1047E000299F500D389F500D11245093A9034093D9
:1047F000A803CFCF09850D30D1F40E94C01887E0FF
:10480000809330018AE0809332011092B00380914E
:10481000A2038F5F8093A20380919D03823009F0F1
:10482000DDCD8091A4038F5F8093A403BECD198555
:10483000143179F40E94B51885E18093320180919A
:104840002C0190912D01029790932D0180932C01C2
:10485000ACCD0985053181F40E94C01887E08093B2
:1048600030018AE0809332011092B0038091A2035C
:104870008F5F8093A20399CD19851E3121F40E9488
:10488000B5188FE133CF09850F31D9F40E94B518DF
:1048900080E2809332018091B003811104C081E0F5
:1048A00080939C0382CD813019F480939B037DCD4E
:1048B000823009F093CD80912C0190912D010497C5
:1048C000C3CF1985103241F2183221F40E94B51875
:1048D00089E20CCF09850932C9F40E94B5188AE231
:1048E000809332018091B00381110AC080912E0122
:1048F00090912F01069690932F0180932E0155CD14
:10490000813009F06BCD1092A4034FCD19851A3276
:1049100009F04BCDA1CF883009F060CD80913101F5
:10492000833009F05BCD198615E00E94933229E1AE
:1049300030E040E050E00E940133862F60939D03F9
:10494000A985A370B0E0612F0E946433292F34E061
:10495000839FF0011124EA0FFB1F898564E10E9407
:10496000643390E0EE0FFF1FEE5FFE4FE80FF91F7C
:104970000081602F70E0709399036093980344E086
:10498000249F90011124A20FB31FAA0FBB1FAE5F7B
:10499000BE4FA80FB91F8C9180830C9309850F5FC0
:1049A0000987083211F68CE291E0909336018093EA
:1049B000350190933A018093390181E090E0909322
:1049C000340180933301909338018093370182E062
:1049D00090E090932D0180932C018AE090E09093D9
:1049E0002F0180932E0110929C0310929B03109232
:1049F000A4031092A20387E08093300110929F03DA
:104A00008091AF03882391F00E94933226E030E03A
:104A100040E050E00E9401336D5F7F4F70932D01A5
:104A200060932C0170932F0160932E018091AF034E
:104A3000823009F0D3CC81E08093A403CFCC1985D8
:104A40001B3009F08ECD60913101603150F084E16E
:104A500090E0861B9109880F991F9093B40380936F
:104A6000B30382EF860F823090F5262F2E50330B42
:104A7000C901880F991F880F991F9093B4038093E1
:104A8000B30361FB332730F93D831E822D813E81C4
:104A9000220F331F81E090E0821B930B462F417061
:104AA0004F8318864F815885440F551F849F90016E
:104AB000859F300D949F300D11243093B6032093C1
:104AC000B503603131F486E08093AE0302C06131FA
:104AD000C0F28091A303853051F48093AE0310920D
:104AE000B6031092B5031092A9031092A803809107
:104AF000AA03813009F035CD603109F032CD84E070
:104B00008093AE038091A8039091A90397FD01962D
:104B1000959587959093A9038093A80322CDC90109
:104B20008B559C4F7C01FC01C0800E94933226E093
:104B300030E040E050E00E940133862FC61205C0ED
:104B400090E00196B1010E947033F701808340CD5F
:104B50004A3009F012C490913101913011F4109251
:104B6000A10320918B0330E02F5F3F4F2770332745
:104B700020938B03882319F081508093AB0310920C
:104B800088031092870310928A031092890381E0B0
:104B90008093010180E991E00E942419109288031A
:104BA0001092870310928A03109289038091A203C6
:104BB00090E001960E9431198091A203893070F033
:104BC0008CE090E0909388038093870310928A038F
:104BD0001092890388EA91E00E9424198091A2032F
:104BE000843161F4109288031092870310928A0333
:104BF000109289038AEA91E00E9424190AE210E0E7
:104C0000109388030093870310928A0310928903FC
:104C100080913501909136010E943119509288039C
:104C20004092870328E030E030938A032093890381
:104C300080912E0190912F010E94311986E390E01E
:104C4000909388038093870348E050E050938A0351
:104C50004093890380912C0190912D010E9431197C
:104C600000E020E140E460E370E090E080E00E943A
:104C7000F7178091AD039FEF980F933008F061C054
:104C8000813071F4109288031092870380E390E0E2
:104C900090938A03809389038FEA91E00E942419FC
:104CA0008091AD03823071F41092880310928703D3
:104CB00080E390E090938A038093890386EB91E0F0
:104CC0000E9424198091AD03833071F410928803FF
:104CD0001092870380E390E090938A038093890386
:104CE0008FEB91E00E942419509288034092870331
:104CF00068E370E070938A036093890389EC91E024
:104D00000E942419109288031092870388E390E090
:104D100090938A03809389038091A8039091A903BB
:104D20000E94311920913101293010F40C94E031A6
:104D300000E028E040E468E370E090E080E00E945A
:104D4000F7178091AD038B3009F040C010928803B3
:104D50001092870380E390E090938A038093890305
:104D600080ED91E00E9424198091A303853009F41D
:104D700007C35092880340928703E8E3F0E0F09382
:104D80008A03E093890389EC91E00E942419109230
:104D900088031092870308E310E010938A030093BE
:104DA00089038091A8039091A9030E943119209151
:104DB0003101293010F40C94F33100E028E040E494
:104DC00068E370E090E080E00E94F7178091AD0307
:104DD000853109F0FAC080913101873080F410925A
:104DE00088031092870388E390E090938A0380936E
:104DF00089038091A50390E001960E94311980916A
:104E00003101863070F4309288032092870388E362
:104E100090E090938A038093890384EE91E00E944E
:104E2000241980913101853090F48CE090E09093CA
:104E300088038093870388E390E090938A038093AC
:104E400089038091A60390E001960E943119809118
:104E50003101843070F4509288034092870388E3D4
:104E600090E090938A038093890386EE91E00E94FC
:104E70002419809131018330B0F488E190E090935F
:104E800088038093870388E390E090938A0380935C
:104E900089038091A6039091A503890F9927991FF3
:104EA00002960E943119809131018230F8F480918C
:104EB000A6039091A503890F9927991F0296209127
:104EC0002C0130912D018217930784F484E290E045
:104ED000909388038093870388E390E090938A03FC
:104EE0008093890388EE91E00E942419809131011A
:104EF0008230F8F48091A6039091A503890F992739
:104F0000991F019620912C0130912D018217930752
:104F100084F084E290E0909388038093870388E391
:104F200090E090938A03809389038AEE91E00E9437
:104F30002419809131018230F8F48091A603909178
:104F4000A503890F9927991F029620912C01309172
:104F50002D018217930781F484E290E090938803F7
:104F60008093870388E390E090938A03809389037A
:104F700086EE91E00E94241980913101823090F4F4
:104F80002AE230E0309388032093870388E390E09F
:104F900090938A038093890380912C0190912D0135
:104FA0000E94311980913101882309F4F8C11092CF
:104FB00088031092870380E390E090938A038093A4
:104FC00089038CEE91E00E9424198091AD03893110
:104FD00081F5109288031092870380E390E090930C
:104FE0008A038093890388E092E00E94241940910B
:104FF000310168E070E0641B71097B876A87440FA8
:10500000440F440F00E028E060E370E08A859B8550
:10501000A3E0880F991FAA95E1F70E94F7178A85E8
:105020009B85880F991F880F991F9093B2038093D7
:10503000B1038091AD038A31A9F5809132018B30A3
:1050400071F0109288031092870380E390E09093B0
:105050008A038093890383E192E00E94241990914E
:105060003101492F440F440F440FE92FF0E0FB8733
:10507000EA8788E090E08E1B9F0B00E028E060E369
:1050800070E0E3E0880F991FEA95E1F70E94F717B7
:105090000A851B85000F111F000F111F1093B2030B
:1050A0000093B1038091AD03863109F0A4C0109242
:1050B00088031092870380E390E090938A038093A3
:1050C000890380ED91E00E9424198091310187309D
:1050D00080F4109288031092870388E390E0909305
:1050E0008A03809389038091A50390E001960E9432
:1050F000311980913101863070F43092880320920A
:10510000870388E390E090938A038093890384EE79
:1051100091E00E94241980913101853090F48CE057
:1051200090E0909388038093870388E390E09093C6
:105130008A03809389038091A60390E001960E94E0
:10514000311980913101843070F45092880340927B
:10515000870388E390E090938A038093890384EE29
:1051600091E00E94241980913101833090F488E10C
:1051700090E0909388038093870388E390E0909376
:105180008A03809389038091A70390E001960E948F
:10519000311980913101823080F48EE190E090935A
:1051A00088038093870388E390E090938A03809339
:1051B000890386EE91E00E942419809131018230AA
:1051C000D0F484E290E0909388038093870388E38F
:1051D00090E090938A03809389038091A703909134
:1051E000A603890F9927991F2091A503820F911D6E
:1051F00003960E943119109201018091300187308D
:10520000F1F0109288031092870328E130E0309388
:105210008A032093890383E292E00E94241950922A
:1052200088034092870348E150E050938A034093FB
:10523000890380913301909134010E94311980914A
:1052400030018111FDC0109288031092870380E124
:1052500090E090938A038093890387E292E00E9412
:10526000241981E08093010180913201883009F096
:1052700055C000E020E148E570E060E090E080E0AB
:105280000E94F7178CE090E0909388038093870347
:1052900010928A03109289038FE592E00E942419EC
:1052A0002DE733E24DE953E26FE170E080E290E0F8
:1052B0000E9441122BE333E24BE553E26FE170E0D1
:1052C00088E090E00E94411229EF32E249E153E286
:1052D00061E170E084E190E00E9441121092880345
:1052E0001092870360E370E070938A0360938903F0
:1052F00086E792E00E9424198AE290E09093880366
:1053000080938703E0E3F0E0F0938A03E09389035E
:105310008091AF0390E001960E9431198091AE0315
:10532000811109C1F0918B036BEAF69F612D112465
:105330006695062F10E0B801615F7F4F27EE32E2DD
:105340004FEE52E284E790E00E944112B8016F5F95
:105350007F4F29E831E247E352E289E590E00E947D
:105360004112B801665D7F4F2BE230E249ED50E219
:1053700083E490E00E9441120EC110928B03FACB9D
:10538000109288031092870388E390E090938A0339
:10539000809389038AED91E00E94241908CD8091C1
:1053A000A6039091A503890F9927991F8A3091052B
:1053B000D1F1029620912C0130912D018217930793
:1053C00084F4109288031092870380E390E0909316
:1053D0008A038093890386EF91E00E94241910923A
:1053E0009A038091A6039091A503890F9927991F8D
:1053F000029620912C0130912D01821793070CF415
:10540000E4CD109288031092870380E390E090939C
:105410008A03809389038AEF91E00E94241981E036
:1054200080939A03D2CD109288031092870380E371
:1054300090E090938A03809389038FEF91E0EDCF02
:10544000813069F4109288031092870380E190E024
:1054500090938A038093890380E392E000CF8330A6
:1054600069F4109288031092870380E190E0909392
:105470008A038093890386E392E0F1CE823069F457
:10548000109288031092870380E190E090938A0342
:10549000809389038CE392E0E2CE843069F4109229
:1054A00088031092870380E190E090938A038093B1
:1054B000890383E492E0D3CE853069F410928803A7
:1054C0001092870380E190E090938A038093890390
:1054D00089E492E0C4CE863069F410928803109279
:1054E000870380E190E090938A03809389038FE49F
:1054F00092E0B5CE8091A103853069F410928803C3
:105500001092870380E190E090938A03809389034F
:1055100085E592E0A4CE863009F0A3CE10928803F0
:105520001092870380E190E090938A03809389032F
:105530008BE592E094CE813009F067C30091B5030A
:105540001091B60323E93FE14EED5FE170E060E0CA
:10555000C8018D5A9F4F0E9441122DE53DE147E75A
:105560005EE167E170E0C801805C9F4F0E944112DC
:105570002BE33DE14BE45DE167E170E0C801835955
:105580009F4F0E94411240E06FE370E0C8018159D3
:105590009F4F0E94E915809132018130C9F500E0EA
:1055A00020E140E660E370E090E080E00E94F717C1
:1055B000109288031092870380E390E090938A030F
:1055C0008093890389E892E00E942419309288032D
:1055D0002092870328E330E030938A0320938903E5
:1055E0008DE892E00E9424198091B0033EE1839FF0
:1055F000C0011124909388038093870348E350E00F
:1056000050938A03409389038AEE91E00E94241903
:1056100080913201893009F0A7C000E020E149E61D
:1056200060E370E090E080E00E94F717109288033A
:105630001092870380E390E090938A03809389031C
:105640008DE992E00E9424198091B0035EE1859F6C
:10565000C0011124909388038093870388E390E02E
:1056600090938A03809389038AEE91E00E94241923
:1056700080913101811178C0F12CE12C912C812C89
:1056800019E0782CD12CC12CC986E091A203E695B3
:10569000E69564E0E69FF0011124EC0DFD1DEE0F90
:1056A000FF1FEE5FFE4FE80DF91D8081813009F08C
:1056B00081C36C2D6695619FB0011124685E7F4F98
:1056C00029E13EE041E25EE08C2D8170F701819F8F
:1056D000E00DF11D1124CF010E9441128091AF0312
:1056E000882399F180919E03972D980F93700985D7
:1056F000091749F090E00296880D991D837099274B
:10570000C816D90611F5A984A694A19E50011124AA
:1057100028E1A20EB11C098501709701019F200D9F
:10572000311D11243B872A8701E028E048E0B501BC
:105730008A859B850E94F7172FEB3DE047EC5DE0E3
:10574000B5018A859B850E9441125FEFC51AD50A73
:1057500064E0C616D10409F097CF72E2E70EF11C9F
:105760008A94892809F022C3809132018A30B9F4E1
:1057700000E020E140E460E370E090E080E00E941F
:10578000F717109288031092870380E390E09093BC
:105790008A03809389038AEB92E00E942419809106
:1057A00032018B508330B8F400E028E040E460E33D
:1057B00070E090E080E00E94F7171092880310924A
:1057C000870380E390E090938A038093890384ECBD
:1057D00092E00E942419809132018D30D9F4809199
:1057E0009D038230B9F400E028E040E468E370E013
:1057F00090E080E00E94F7171092880310928703D0
:1058000088E390E090938A03809389038BEC92E085
:105810000E94241981E08093010110913201812FAF
:1058200084518230A0F500E020E140E460E370E0C4
:1058300090E080E00E94F717143171F41092880311
:105840001092870380E390E090938A03809389030A
:1058500082ED92E00E942419809132018531B9F4E1
:1058600000E020E14EE460E370E090E080E00E9420
:10587000F717109288031092870380E390E09093CB
:105880008A03809389038BED92E00E942419109182
:105890003201812F8E51833008F05FC000E020E19B
:1058A00044E560E370E090E080E00E94F7171E316D
:1058B00071F4109288031092870380E390E0909334
:1058C0008A038093890384EF92E00E9424198091D7
:1058D00032018F3181F5109288031092870380E3A3
:1058E00090E090938A03809389038AEF92E00E946C
:1058F0002419309288032092870328E330E0309304
:105900008A032093890389E093E00E9424198091FF
:10591000B00338E1839FC0011124909388038093E2
:10592000870348E350E050938A03409389038AEE4B
:1059300091E00E94241980913201803271F410921A
:1059400088031092870380E390E090938A0380930A
:10595000890386E193E00E9424191091320119878E
:10596000812F8852833008F080C000E020E148E4B5
:1059700060E370E090E080E00E94F717183271F465
:10598000109288031092870380E390E090938A033B
:105990008093890384EF92E00E9424198091320160
:1059A000893209F047C000E020E14EE760E370E093
:1059B00090E080E00E94F71710928803109287030E
:1059C00020E330E030938A032093890384EF92E050
:1059D0000E942419109288031092870340E350E03C
:1059E00050938A03409389038DE193E00E94241928
:1059F000309288032092870368E370E070938A03F3
:105A00006093890383E393E00E9424198091B0039B
:105A10007AE2879FC00111249093880380938703C3
:105A200088E390E090938A03809389038AEE91E063
:105A30000E942419809132018A32B9F400E020E1F9
:105A40004AE560E370E090E080E00E94F717109272
:105A500088031092870380E390E090938A038093F9
:105A6000890386E493E00E942419809132018536EF
:105A700089F52BEA3DE044EB5DE06BE070E082E607
:105A800090E00E94411200E020E148E460E370E011
:105A900090E080E00E94F71710928803109287032D
:105AA00080E390E090938A038093890386E593E0F6
:105AB0000E94241988E090E09093880380938703E4
:105AC00088E390E090938A038093890382E693E0D1
:105AD0000E942419809130018111A6C16091B10307
